:100000000A128A11E82D00308A000408840A820747
:1000100000344134443443342034563461346C3435
:0A002000753465343A34203400349E
:100B76008030831603139F000800F2007208831268
:100B860003138800061286164130F100EE30F0009D
:100B9600F00BCB2DF10BCB2D6400831203138612C1
:100BA6000800F200720883120313880006168616E0
:100BB6004130F100EE30F000F00BDF2DF10BDF2DB0
:100BC60064008312031386120800FA01FB01FC017C
:100BD600FD01A001A101A201A301A401A501A60195
:100BE600A701A801A901AA01AB01AC01AD018301CE
:100BF6000A128A117E2E01300A128A11C0250A12A3
:100C06008A1106300A128A11C0250A128A110C307E
:100C16000A128A11C0250A128A1138300A128A115C
:100C2600C0250A128A110800F500332E75088400C3
:100C36000A128A1103200A128A110A128A11D4256D
:100C46000A128A110130F3007308F5074130F400E7
:100C5600EE30F300F30B2D2EF40B2D2E6400332E05
:100C6600750884000A128A1103200A128A110038B4
:100C7600031D3E2E3F2E192E402E0800C53083122E
:100C860003139F00462E1F19492E4A2E462E4B2E21
:100C96004130F100EE30F000F00B4F2EF10B4F2EED
:100CA6006400831603131E08F000F1017008831216
:100CB6000313A0007108A1001E08F000F1017008DE
:100CC600FA007108FB007B08F1007A08F000083092
:100CD600FF000310F00DF10DFF0B6C2E7008FA00EB
:100CE6007108FB0020087A07AC0021080318210AC6
:100CF6007B07AD00080001308316031385008312BD
:100D060003138501831603138801860183120313D7
:100D1600860188010A128A11FE250A128A110A1210
:100D26008A11BB250A128A11982E0A128A114126A7
:100D36000A128A1184300A128A11C0250A128A11EF
:100D460001300A128A1117260A128A11C8300A12AD
:100D56008A11C0250A128A11831203132D08F9017C
:100D6600F9072C08F801F8070A128A1155270A1202
:100D76008A11982E982E0A128A110028710870047A
:100D86000319C62EC72EFD2EF5010314F50DD72E19
:100D960001300310F00DF10DFF3E031DCC2E013086
:100DA600F4007408F507D72EF11FDA2EDB2ECB2EB2
:100DB600DD2EDD2E71087302031DE32E700872020C
:100DC600031CE62EE72EEE2E7008F2027108031CB5
:100DD600F303F302EE2E01300310F10CF00CFF3E8C
:100DE600031DEF2E0130F502031DFA2EFB2EDD2E1C
:100DF600FD2EFD2E7308F101F1077208F001F007D0
:100E0600042F08000030F5000030F6007108700469
:100E160003190E2F0F2F4D2FF7010314F70D1F2F58
:100E260001300310F00DF10DFF3E031D142F0130AC
:100E3600F4007408F7071F2FF11F222F232F132FFB
:100E4600252F252F01300310F50DF60DFF3E031D4E
:100E5600262F71087302031D322F70087202031CBD
:100E6600352F362F3E2F7008F2027108031CF3034C
:100E7600F30275143E2F01300310F10CF00CFF3E07
:100E8600031D3F2F0130F702031D4A2F4B2F252F3D
:100E96004D2F4D2F7608F101F1077508F001F00787
:100EA600542F0800E830F0000330F1007908F30110
:100EB600F3077808F201F2070A128A1105270A12C7
:100EC6008A11710883120313A301A3077008A201F4
:100ED600A207E830F0000330F1007908F301F307C8
:100EE6007808F201F2070A128A11C1260A128A113B
:100EF6007108FD01FD077008FC01FC076430F00075
:100F06000030F1007D08F301F3077C08F201F207D7
:100F16000A128A1105270A128A117108831203130D
:100F2600A701A7077008A601A6076430F0000030E5
:100F3600F1007D08F301F3077C08F201F2070A12BB
:100F46008A11C1260A128A11710883120313A50198
:100F5600A5077008A401A4070A30F0000030F100CC
:100F66002508F301F3072408F201F2070A128A1191
:100F760005270A128A11710883120313A901A9070A
:100F86007008A801A8070A30F0000030F100250813
:100F9600F301F3072408F201F2070A128A11C126A7
:100FA6000A128A11710883120313AB01AB0770088A
:100FB600AA01AA072208303E0A128A11D4250A126B
:100FC6008A11831203132608303E0A128A11D42589
:100FD6000A128A11831203132808303E0A128A1154
:100FE600D4250A128A11831203132A08303E0A12E4
:0A0FF6008A11D4250A128A1108009E
:00000001FF
